{"abi":[{"type":"function","name":"debts","inputs":[{"name":"","type":"uint256","internalType":"uint256"}],"outputs":[{"name":"debtor","type":"address","internalType":"address"},{"name":"creditor","type":"address","internalType":"address"},{"name":"amount","type":"uint256","internalType":"uint256"},{"name":"settled","type":"bool","internalType":"bool"}],"stateMutability":"view"},{"type":"function","name":"getDebt","inputs":[{"name":"id","type":"uint256","internalType":"uint256"}],"outputs":[{"name":"","type":"tuple","internalType":"struct LedgerWatch.Debt","components":[{"name":"debtor","type":"address","internalType":"address"},{"name":"creditor","type":"address","internalType":"address"},{"name":"amount","type":"uint256","internalType":"uint256"},{"name":"settled","type":"bool","internalType":"bool"}]}],"stateMutability":"view"},{"type":"function","name":"logDebt","inputs":[{"name":"creditor","type":"address","internalType":"address"},{"name":"amount","type":"uint256","internalType":"uint256"}],"outputs":[{"name":"id","type":"uint256","internalType":"uint256"}],"stateMutability":"nonpayable"},{"type":"function","name":"settle","inputs":[{"name":"id","type":"uint256","internalType":"uint256"}],"outputs":[],"stateMutability":"payable"},{"type":"event","name":"DebtLogged","inputs":[{"name":"id","type":"uint256","indexed":true,"internalType":"uint256"},{"name":"debtor","type":"address","indexed":true,"internalType":"address"},{"name":"creditor","type":"address","indexed":true,"internalType":"address"},{"name":"amount","type":"uint256","indexed":false,"internalType":"uint256"}],"anonymous":false},{"type":"event","name":"DebtSettled","inputs":[{"name":"id","type":"uint256","indexed":true,"internalType":"uint256"},{"name":"amountPaid","type":"uint256","indexed":false,"internalType":"uint256"}],"anonymous":false},{"type":"error","name":"AlreadySettled","inputs":[{"name":"id","type":"uint256","internalType":"uint256"}]},{"type":"error","name":"NotDebtor","inputs":[{"name":"id","type":"uint256","internalType":"uint256"},{"name":"caller","type":"address","internalType":"address"}]},{"type":"error","name":"WrongAmount","inputs":[{"name":"expected","type":"uint256","internalType":"uint256"},{"name":"sent","type":"uint256","internalType":"uint256"}]}],"bytecode":{"object":"0x6080604052348015600e575f5ffd5b50610a9c8061001c5f395ff3fe60806040526004361061003e575f3560e01c806385af9b3f146100425780638df82800146100815780639dc46d241461009d578063c9dd1f3c146100d9575b5f5ffd5b34801561004d575f5ffd5b5061006860048036038101906100639190610742565b610115565b60405161007894939291906107d5565b60405180910390f35b61009b60048036038101906100969190610742565b610199565b005b3480156100a8575f5ffd5b506100c360048036038101906100be9190610842565b610414565b6040516100d09190610880565b60405180910390f35b3480156100e4575f5ffd5b506100ff60048036038101906100fa9190610742565b6105b3565b60405161010c9190610919565b60405180910390f35b5f8181548110610123575f80fd5b905f5260205f2090600402015f91509050805f015f9054906101000a900473ffffffffffffffffffffffffffffffffffffffff1690806001015f9054906101000a900473ffffffffffffffffffffffffffffffffffffffff1690806002015490806003015f9054906101000a900460ff16905084565b5f5f82815481106101ad576101ac610932565b5b905f5260205f2090600402019050805f015f9054906101000a900473ffffffffffffffffffffffffffffffffffffffff1673ffffffffffffffffffffffffffffffffffffffff163373ffffffffffffffffffffffffffffffffffffffff161461024f5781336040517f9be0711900000000000000000000000000000000000000000000000000000000815260040161024692919061095f565b60405180910390fd5b806003015f9054906101000a900460ff16156102a257816040517f8fec535e0000000000000000000000000000000000000000000000000000000081526004016102999190610880565b60405180910390fd5b806002015434146102f0578060020154346040517f312b00330000000000000000000000000000000000000000000000000000000081526004016102e7929190610986565b60405180910390fd5b6001816003015f6101000a81548160ff0219169083151502179055505f816001015f9054906101000a900473ffffffffffffffffffffffffffffffffffffffff1673ffffffffffffffffffffffffffffffffffffffff1634604051610354906109da565b5f6040518083038185875af1925050503d805f811461038e576040519150601f19603f3d011682016040523d82523d5f602084013e610393565b606091505b50509050806103d7576040517f08c379a00000000000000000000000000000000000000000000000000000000081526004016103ce90610a48565b60405180910390fd5b827f76ddd0957b3ffe54e5472ef88e05cd12e81d3ee8cbe20f04db9a84b9ee1ebd3a346040516104079190610880565b60405180910390a2505050565b5f5f8054905090505f60405180608001604052803373ffffffffffffffffffffffffffffffffffffffff1681526020018573ffffffffffffffffffffffffffffffffffffffff1681526020018481526020015f1515815250908060018154018082558091505060019003905f5260205f2090600402015f909190919091505f820151815f015f6101000a81548173ffffffffffffffffffffffffffffffffffffffff021916908373ffffffffffffffffffffffffffffffffffffffff1602179055506020820151816001015f6101000a81548173ffffffffffffffffffffffffffffffffffffffff021916908373ffffffffffffffffffffffffffffffffffffffff160217905550604082015181600201556060820151816003015f6101000a81548160ff02191690831515021790555050508273ffffffffffffffffffffffffffffffffffffffff163373ffffffffffffffffffffffffffffffffffffffff16827f7e71c3aa741c43340c6dcae8932aa261b3e0f75ac37edcc1d7604edf054b8f79856040516105a59190610880565b60405180910390a492915050565b6105bb6106b9565b5f82815481106105ce576105cd610932565b5b905f5260205f2090600402016040518060800160405290815f82015f9054906101000a900473ffffffffffffffffffffffffffffffffffffffff1673ffffffffffffffffffffffffffffffffffffffff1673ffffffffffffffffffffffffffffffffffffffff168152602001600182015f9054906101000a900473ffffffffffffffffffffffffffffffffffffffff1673ffffffffffffffffffffffffffffffffffffffff1673ffffffffffffffffffffffffffffffffffffffff16815260200160028201548152602001600382015f9054906101000a900460ff1615151515815250509050919050565b60405180608001604052805f73ffffffffffffffffffffffffffffffffffffffff1681526020015f73ffffffffffffffffffffffffffffffffffffffff1681526020015f81526020015f151581525090565b5f5ffd5b5f819050919050565b6107218161070f565b811461072b575f5ffd5b50565b5f8135905061073c81610718565b92915050565b5f602082840312156107575761075661070b565b5b5f6107648482850161072e565b91505092915050565b5f73ffffffffffffffffffffffffffffffffffffffff82169050919050565b5f6107968261076d565b9050919050565b6107a68161078c565b82525050565b6107b58161070f565b82525050565b5f8115159050919050565b6107cf816107bb565b82525050565b5f6080820190506107e85f83018761079d565b6107f5602083018661079d565b61080260408301856107ac565b61080f60608301846107c6565b95945050505050565b6108218161078c565b811461082b575f5ffd5b50565b5f8135905061083c81610818565b92915050565b5f5f604083850312156108585761085761070b565b5b5f6108658582860161082e565b92505060206108768582860161072e565b9150509250929050565b5f6020820190506108935f8301846107ac565b92915050565b6108a28161078c565b82525050565b6108b18161070f565b82525050565b6108c0816107bb565b82525050565b608082015f8201516108da5f850182610899565b5060208201516108ed6020850182610899565b50604082015161090060408501826108a8565b50606082015161091360608501826108b7565b50505050565b5f60808201905061092c5f8301846108c6565b92915050565b7f4e487b71000000000000000000000000000000000000000000000000000000005f52603260045260245ffd5b5f6040820190506109725f8301856107ac565b61097f602083018461079d565b9392505050565b5f6040820190506109995f8301856107ac565b6109a660208301846107ac565b9392505050565b5f81905092915050565b50565b5f6109c55f836109ad565b91506109d0826109b7565b5f82019050919050565b5f6109e4826109ba565b9150819050919050565b5f82825260208201905092915050565b7f7472616e73666572206661696c656400000000000000000000000000000000005f82015250565b5f610a32600f836109ee565b9150610a3d826109fe565b602082019050919050565b5f6020820190508181035f830152610a5f81610a26565b905091905056fea26469706673582212204b29a762a13c352497a8c75dc6cda55c4361edd7ed881fda58554b59ababa7d164736f6c634300081c0033","linkReferences":{}},"methodIdentifiers":{"debts(uint256)":"85af9b3f","getDebt(uint256)":"c9dd1f3c","logDebt(address,uint256)":"9dc46d24","settle(uint256)":"8df82800"},"id":19}